{
  "_format": "hh-sol-artifact-1",
  "contractName": "Dmail",
  "sourceName": "contracts/dmail.sol",
  "abi": [
    {
      "inputs": [],
      "stateMutability": "nonpayable",
      "type": "constructor"
    },
    {
      "anonymous": false,
      "inputs": [
        {
          "indexed": true,
          "internalType": "address",
          "name": "owner",
          "type": "address"
        },
        {
          "indexed": true,
          "internalType": "address",
          "name": "approved",
          "type": "address"
        },
        {
          "indexed": true,
          "internalType": "uint256",
          "name": "tokenId",
          "type": "uint256"
        }
      ],
      "name": "Approval",
      "type": "event"
    },
    {
      "anonymous": false,
      "inputs": [
        {
          "indexed": true,
          "internalType": "address",
          "name": "owner",
          "type": "address"
        },
        {
          "indexed": true,
          "internalType": "address",
          "name": "operator",
          "type": "address"
        },
        {
          "indexed": false,
          "internalType": "bool",
          "name": "approved",
          "type": "bool"
        }
      ],
      "name": "ApprovalForAll",
      "type": "event"
    },
    {
      "anonymous": false,
      "inputs": [
        {
          "indexed": false,
          "internalType": "uint256",
          "name": "id",
          "type": "uint256"
        },
        {
          "indexed": false,
          "internalType": "string",
          "name": "hash",
          "type": "string"
        },
        {
          "indexed": false,
          "internalType": "address payable",
          "name": "author",
          "type": "address"
        }
      ],
      "name": "MailCreated",
      "type": "event"
    },
    {
      "anonymous": false,
      "inputs": [
        {
          "indexed": true,
          "internalType": "address",
          "name": "from",
          "type": "address"
        },
        {
          "indexed": true,
          "internalType": "address",
          "name": "to",
          "type": "address"
        },
        {
          "indexed": true,
          "internalType": "uint256",
          "name": "tokenId",
          "type": "uint256"
        }
      ],
      "name": "Transfer",
      "type": "event"
    },
    {
      "inputs": [
        {
          "internalType": "address",
          "name": "to",
          "type": "address"
        },
        {
          "internalType": "uint256",
          "name": "tokenId",
          "type": "uint256"
        }
      ],
      "name": "approve",
      "outputs": [],
      "stateMutability": "nonpayable",
      "type": "function"
    },
    {
      "inputs": [
        {
          "internalType": "address",
          "name": "owner",
          "type": "address"
        }
      ],
      "name": "balanceOf",
      "outputs": [
        {
          "internalType": "uint256",
          "name": "",
          "type": "uint256"
        }
      ],
      "stateMutability": "view",
      "type": "function"
    },
    {
      "inputs": [
        {
          "internalType": "address",
          "name": "_userAddress",
          "type": "address"
        }
      ],
      "name": "getAllMails",
      "outputs": [
        {
          "components": [
            {
              "internalType": "uint256",
              "name": "id",
              "type": "uint256"
            },
            {
              "internalType": "string",
              "name": "hash",
              "type": "string"
            },
            {
              "internalType": "address payable",
              "name": "author",
              "type": "address"
            }
          ],
          "internalType": "struct Dmail.Mail[]",
          "name": "_mails",
          "type": "tuple[]"
        }
      ],
      "stateMutability": "view",
      "type": "function"
    },
    {
      "inputs": [
        {
          "internalType": "uint256",
          "name": "tokenId",
          "type": "uint256"
        }
      ],
      "name": "getApproved",
      "outputs": [
        {
          "internalType": "address",
          "name": "",
          "type": "address"
        }
      ],
      "stateMutability": "view",
      "type": "function"
    },
    {
      "inputs": [
        {
          "internalType": "address",
          "name": "_userAddress",
          "type": "address"
        }
      ],
      "name": "getURI",
      "outputs": [
        {
          "internalType": "string",
          "name": "",
          "type": "string"
        }
      ],
      "stateMutability": "view",
      "type": "function"
    },
    {
      "inputs": [
        {
          "internalType": "address",
          "name": "owner",
          "type": "address"
        },
        {
          "internalType": "address",
          "name": "operator",
          "type": "address"
        }
      ],
      "name": "isApprovedForAll",
      "outputs": [
        {
          "internalType": "bool",
          "name": "",
          "type": "bool"
        }
      ],
      "stateMutability": "view",
      "type": "function"
    },
    {
      "inputs": [
        {
          "internalType": "address",
          "name": "",
          "type": "address"
        }
      ],
      "name": "mailCount",
      "outputs": [
        {
          "internalType": "uint256",
          "name": "",
          "type": "uint256"
        }
      ],
      "stateMutability": "view",
      "type": "function"
    },
    {
      "inputs": [
        {
          "internalType": "address",
          "name": "",
          "type": "address"
        },
        {
          "internalType": "uint256",
          "name": "",
          "type": "uint256"
        }
      ],
      "name": "mails",
      "outputs": [
        {
          "internalType": "uint256",
          "name": "id",
          "type": "uint256"
        },
        {
          "internalType": "string",
          "name": "hash",
          "type": "string"
        },
        {
          "internalType": "address payable",
          "name": "author",
          "type": "address"
        }
      ],
      "stateMutability": "view",
      "type": "function"
    },
    {
      "inputs": [
        {
          "internalType": "address",
          "name": "_userAddress",
          "type": "address"
        },
        {
          "internalType": "string",
          "name": "_tokenURI",
          "type": "string"
        }
      ],
      "name": "mint",
      "outputs": [],
      "stateMutability": "nonpayable",
      "type": "function"
    },
    {
      "inputs": [],
      "name": "name",
      "outputs": [
        {
          "internalType": "string",
          "name": "",
          "type": "string"
        }
      ],
      "stateMutability": "view",
      "type": "function"
    },
    {
      "inputs": [
        {
          "internalType": "uint256",
          "name": "tokenId",
          "type": "uint256"
        }
      ],
      "name": "ownerOf",
      "outputs": [
        {
          "internalType": "address",
          "name": "",
          "type": "address"
        }
      ],
      "stateMutability": "view",
      "type": "function"
    },
    {
      "inputs": [
        {
          "internalType": "address",
          "name": "from",
          "type": "address"
        },
        {
          "internalType": "address",
          "name": "to",
          "type": "address"
        },
        {
          "internalType": "uint256",
          "name": "tokenId",
          "type": "uint256"
        }
      ],
      "name": "safeTransferFrom",
      "outputs": [],
      "stateMutability": "nonpayable",
      "type": "function"
    },
    {
      "inputs": [
        {
          "internalType": "address",
          "name": "from",
          "type": "address"
        },
        {
          "internalType": "address",
          "name": "to",
          "type": "address"
        },
        {
          "internalType": "uint256",
          "name": "tokenId",
          "type": "uint256"
        },
        {
          "internalType": "bytes",
          "name": "_data",
          "type": "bytes"
        }
      ],
      "name": "safeTransferFrom",
      "outputs": [],
      "stateMutability": "nonpayable",
      "type": "function"
    },
    {
      "inputs": [
        {
          "internalType": "address",
          "name": "operator",
          "type": "address"
        },
        {
          "internalType": "bool",
          "name": "approved",
          "type": "bool"
        }
      ],
      "name": "setApprovalForAll",
      "outputs": [],
      "stateMutability": "nonpayable",
      "type": "function"
    },
    {
      "inputs": [
        {
          "internalType": "bytes4",
          "name": "interfaceId",
          "type": "bytes4"
        }
      ],
      "name": "supportsInterface",
      "outputs": [
        {
          "internalType": "bool",
          "name": "",
          "type": "bool"
        }
      ],
      "stateMutability": "view",
      "type": "function"
    },
    {
      "inputs": [],
      "name": "symbol",
      "outputs": [
        {
          "internalType": "string",
          "name": "",
          "type": "string"
        }
      ],
      "stateMutability": "view",
      "type": "function"
    },
    {
      "inputs": [
        {
          "internalType": "uint256",
          "name": "tokenId",
          "type": "uint256"
        }
      ],
      "name": "tokenURI",
      "outputs": [
        {
          "internalType": "string",
          "name": "",
          "type": "string"
        }
      ],
      "stateMutability": "view",
      "type": "function"
    },
    {
      "inputs": [
        {
          "internalType": "address",
          "name": "from",
          "type": "address"
        },
        {
          "internalType": "address",
          "name": "to",
          "type": "address"
        },
        {
          "internalType": "uint256",
          "name": "tokenId",
          "type": "uint256"
        }
      ],
      "name": "transferFrom",
      "outputs": [],
      "stateMutability": "nonpayable",
      "type": "function"
    },
    {
      "inputs": [
        {
          "internalType": "address",
          "name": "_userAddress",
          "type": "address"
        },
        {
          "internalType": "string",
          "name": "_mailHash",
          "type": "string"
        }
      ],
      "name": "uploadMail",
      "outputs": [],
      "stateMutability": "nonpayable",
      "type": "function"
    },
    {
      "inputs": [
        {
          "internalType": "address",
          "name": "",
          "type": "address"
        }
      ],
      "name": "user",
      "outputs": [
        {
          "internalType": "bool",
          "name": "",
          "type": "bool"
        }
      ],
      "stateMutability": "view",
      "type": "function"
    }
  ],
  "bytecode": "0x60806040523480156200001157600080fd5b506040805180820182526011815270111958d95b9d1c985b1a5e994813585a5b607a1b602080830191825283518085019094526005845264111350525360da1b908401528151919291620000689160009162000087565b5080516200007e90600190602084019062000087565b5050506200016a565b82805462000095906200012d565b90600052602060002090601f016020900481019282620000b9576000855562000104565b82601f10620000d457805160ff191683800117855562000104565b8280016001018555821562000104579182015b8281111562000104578251825591602001919060010190620000e7565b506200011292915062000116565b5090565b5b8082111562000112576000815560010162000117565b600181811c908216806200014257607f821691505b602082108114156200016457634e487b7160e01b600052602260045260246000fd5b50919050565b611cf6806200017a6000396000f3fe608060405234801561001057600080fd5b506004361061012c5760003560e01c806395d89b41116100ad578063b88d4fde11610071578063b88d4fde146102ac578063c87b56dd146102bf578063d0def521146102d2578063dae0dc97146102e5578063e985e9c51461030757600080fd5b806395d89b411461023e5780639e676d0114610246578063a22cb46514610259578063a31e32091461026c578063af9a80d41461028c57600080fd5b806342842e0e116100f457806342842e0e146101c15780636352211e146101d457806370a08231146101e7578063756d38ce1461020857806381e7e20e1461021b57600080fd5b806301ffc9a71461013157806306fdde0314610159578063081812fc1461016e578063095ea7b31461019957806323b872dd146101ae575b600080fd5b61014461013f36600461193a565b610343565b60405190151581526020015b60405180910390f35b610161610395565b6040516101509190611aab565b61018161017c366004611972565b610427565b6040516001600160a01b039091168152602001610150565b6101ac6101a7366004611911565b6104b4565b005b6101ac6101bc3660046117c4565b6105ca565b6101ac6101cf3660046117c4565b6105fb565b6101816101e2366004611972565b610616565b6101fa6101f5366004611778565b61068d565b604051908152602001610150565b610161610216366004611778565b610714565b610144610229366004611778565b60086020526000908152604090205460ff1681565b610161610728565b6101ac6102543660046118b2565b610737565b6101ac610267366004611878565b610885565b6101fa61027a366004611778565b60076020526000908152604090205481565b61029f61029a366004611778565b610894565b6040516101509190611a22565b6101ac6102ba3660046117ff565b610a7b565b6101616102cd366004611972565b610ab3565b6101ac6102e03660046118b2565b610c2a565b6102f86102f3366004611911565b610c75565b60405161015093929190611b61565b610144610315366004611792565b6001600160a01b03918216600090815260056020908152604080832093909416825291909152205460ff1690565b60006001600160e01b031982166380ac58cd60e01b148061037457506001600160e01b03198216635b5e139f60e01b145b8061038f57506301ffc9a760e01b6001600160e01b03198316145b92915050565b6060600080546103a490611c01565b80601f01602080910402602001604051908101604052809291908181526020018280546103d090611c01565b801561041d5780601f106103f25761010080835404028352916020019161041d565b820191906000526020600020905b81548152906001019060200180831161040057829003601f168201915b5050505050905090565b600061043282610d34565b6104985760405162461bcd60e51b815260206004820152602c60248201527f4552433732313a20617070726f76656420717565727920666f72206e6f6e657860448201526b34b9ba32b73a103a37b5b2b760a11b60648201526084015b60405180910390fd5b506000908152600460205260409020546001600160a01b031690565b60006104bf82610616565b9050806001600160a01b0316836001600160a01b0316141561052d5760405162461bcd60e51b815260206004820152602160248201527f4552433732313a20617070726f76616c20746f2063757272656e74206f776e656044820152603960f91b606482015260840161048f565b336001600160a01b038216148061054957506105498133610315565b6105bb5760405162461bcd60e51b815260206004820152603860248201527f4552433732313a20617070726f76652063616c6c6572206973206e6f74206f7760448201527f6e6572206e6f7220617070726f76656420666f7220616c6c0000000000000000606482015260840161048f565b6105c58383610d51565b505050565b6105d43382610dbf565b6105f05760405162461bcd60e51b815260040161048f90611b10565b6105c5838383610ea5565b6105c583838360405180602001604052806000815250610a7b565b6000818152600260205260408120546001600160a01b03168061038f5760405162461bcd60e51b815260206004820152602960248201527f4552433732313a206f776e657220717565727920666f72206e6f6e657869737460448201526832b73a103a37b5b2b760b91b606482015260840161048f565b60006001600160a01b0382166106f85760405162461bcd60e51b815260206004820152602a60248201527f4552433732313a2062616c616e636520717565727920666f7220746865207a65604482015269726f206164647265737360b01b606482015260840161048f565b506001600160a01b031660009081526003602052604090205490565b606061038f826001600160a01b0316610ab3565b6060600180546103a490611c01565b60008151116107885760405162461bcd60e51b815260206004820152601960248201527f43616e6e6f74207061737320616e20656d707479206861736800000000000000604482015260640161048f565b6001600160a01b03821660009081526007602052604081208054916107ac83611c36565b9091555050604080516060810182526001600160a01b038416600081815260076020908152848220548085528185018781523386880152938352600982528583209083528152939020825181559051805192939192610811926001850192019061164d565b5060409182015160029190910180546001600160a01b0319166001600160a01b039283161790558316600090815260076020528190205490517fd32352a856bbaf950636e61f2a7ffe491bc7c124e1f13d16845441c85720ee46916108799184903390611b61565b60405180910390a15050565b610890338383611041565b5050565b6001600160a01b03811660009081526007602052604090205460609067ffffffffffffffff8111156108d657634e487b7160e01b600052604160045260246000fd5b60405190808252806020026020018201604052801561093457816020015b6109216040518060600160405280600081526020016060815260200160006001600160a01b031681525090565b8152602001906001900390816108f45790505b50905060005b8151811015610a75576001600160a01b0383166000908152600960205260408120835190919061096b908490611bbe565b81526020019081526020016000206040518060600160405290816000820154815260200160018201805461099e90611c01565b80601f01602080910402602001604051908101604052809291908181526020018280546109ca90611c01565b8015610a175780601f106109ec57610100808354040283529160200191610a17565b820191906000526020600020905b8154815290600101906020018083116109fa57829003601f168201915b5050509183525050600291909101546001600160a01b03166020909101528251839083908110610a5757634e487b7160e01b600052603260045260246000fd5b60200260200101819052508080610a6d90611c36565b91505061093a565b50919050565b610a853383610dbf565b610aa15760405162461bcd60e51b815260040161048f90611b10565b610aad84848484611110565b50505050565b6060610abe82610d34565b610b245760405162461bcd60e51b815260206004820152603160248201527f45524337323155524953746f726167653a2055524920717565727920666f72206044820152703737b732bc34b9ba32b73a103a37b5b2b760791b606482015260840161048f565b60008281526006602052604081208054610b3d90611c01565b80601f0160208091040260200160405190810160405280929190818152602001828054610b6990611c01565b8015610bb65780601f10610b8b57610100808354040283529160200191610bb6565b820191906000526020600020905b815481529060010190602001808311610b9957829003601f168201915b505050505090506000610bd460408051602081019091526000815290565b9050805160001415610be7575092915050565b815115610c19578082604051602001610c019291906119b6565b60405160208183030381529060405292505050919050565b610c2284611143565b949350505050565b610c3d33836001600160a01b031661121b565b610c50826001600160a01b031682611235565b506001600160a01b03166000908152600860205260409020805460ff19166001179055565b600960209081526000928352604080842090915290825290208054600182018054919291610ca290611c01565b80601f0160208091040260200160405190810160405280929190818152602001828054610cce90611c01565b8015610d1b5780601f10610cf057610100808354040283529160200191610d1b565b820191906000526020600020905b815481529060010190602001808311610cfe57829003601f168201915b505050600290930154919250506001600160a01b031683565b6000908152600260205260409020546001600160a01b0316151590565b600081815260046020526040902080546001600160a01b0319166001600160a01b0384169081179091558190610d8682610616565b6001600160a01b03167f8c5be1e5ebec7d5bd14f71427d1e84f3dd0314c0f7b2291e5b200ac8c7c3b92560405160405180910390a45050565b6000610dca82610d34565b610e2b5760405162461bcd60e51b815260206004820152602c60248201527f4552433732313a206f70657261746f7220717565727920666f72206e6f6e657860448201526b34b9ba32b73a103a37b5b2b760a11b606482015260840161048f565b6000610e3683610616565b9050806001600160a01b0316846001600160a01b03161480610e715750836001600160a01b0316610e6684610427565b6001600160a01b0316145b80610c2257506001600160a01b0380821660009081526005602090815260408083209388168352929052205460ff16610c22565b826001600160a01b0316610eb882610616565b6001600160a01b031614610f1c5760405162461bcd60e51b815260206004820152602560248201527f4552433732313a207472616e736665722066726f6d20696e636f72726563742060448201526437bbb732b960d91b606482015260840161048f565b6001600160a01b038216610f7e5760405162461bcd60e51b8152602060048201526024808201527f4552433732313a207472616e7366657220746f20746865207a65726f206164646044820152637265737360e01b606482015260840161048f565b610f89600082610d51565b6001600160a01b0383166000908152600360205260408120805460019290610fb2908490611bbe565b90915550506001600160a01b0382166000908152600360205260408120805460019290610fe0908490611b92565b909155505060008181526002602052604080822080546001600160a01b0319166001600160a01b0386811691821790925591518493918716917fddf252ad1be2c89b69c2b068fc378daa952ba7f163c4a11628f55a4df523b3ef91a4505050565b816001600160a01b0316836001600160a01b031614156110a35760405162461bcd60e51b815260206004820152601960248201527f4552433732313a20617070726f766520746f2063616c6c657200000000000000604482015260640161048f565b6001600160a01b03838116600081815260056020908152604080832094871680845294825291829020805460ff191686151590811790915591519182527f17307eab39ab6107e8899845ad3d59bd9653f200f220920489ca2b5937696c31910160405180910390a3505050565b61111b848484610ea5565b611127848484846112c0565b610aad5760405162461bcd60e51b815260040161048f90611abe565b606061114e82610d34565b6111b25760405162461bcd60e51b815260206004820152602f60248201527f4552433732314d657461646174613a2055524920717565727920666f72206e6f60448201526e3732bc34b9ba32b73a103a37b5b2b760891b606482015260840161048f565b60006111c960408051602081019091526000815290565b905060008151116111e95760405180602001604052806000815250611214565b806111f3846113cd565b6040516020016112049291906119b6565b6040516020818303038152906040525b9392505050565b6108908282604051806020016040528060008152506114e7565b61123e82610d34565b6112a15760405162461bcd60e51b815260206004820152602e60248201527f45524337323155524953746f726167653a2055524920736574206f66206e6f6e60448201526d32bc34b9ba32b73a103a37b5b2b760911b606482015260840161048f565b600082815260066020908152604090912082516105c59284019061164d565b60006001600160a01b0384163b156113c257604051630a85bd0160e11b81526001600160a01b0385169063150b7a02906113049033908990889088906004016119e5565b602060405180830381600087803b15801561131e57600080fd5b505af192505050801561134e575060408051601f3d908101601f1916820190925261134b91810190611956565b60015b6113a8573d80801561137c576040519150601f19603f3d011682016040523d82523d6000602084013e611381565b606091505b5080516113a05760405162461bcd60e51b815260040161048f90611abe565b805181602001fd5b6001600160e01b031916630a85bd0160e11b149050610c22565b506001949350505050565b6060816113f15750506040805180820190915260018152600360fc1b602082015290565b8160005b811561141b578061140581611c36565b91506114149050600a83611baa565b91506113f5565b60008167ffffffffffffffff81111561144457634e487b7160e01b600052604160045260246000fd5b6040519080825280601f01601f19166020018201604052801561146e576020820181803683370190505b5090505b8415610c2257611483600183611bbe565b9150611490600a86611c51565b61149b906030611b92565b60f81b8183815181106114be57634e487b7160e01b600052603260045260246000fd5b60200101906001600160f81b031916908160001a9053506114e0600a86611baa565b9450611472565b6114f1838361151a565b6114fe60008484846112c0565b6105c55760405162461bcd60e51b815260040161048f90611abe565b6001600160a01b0382166115705760405162461bcd60e51b815260206004820181905260248201527f4552433732313a206d696e7420746f20746865207a65726f2061646472657373604482015260640161048f565b61157981610d34565b156115c65760405162461bcd60e51b815260206004820152601c60248201527f4552433732313a20746f6b656e20616c7265616479206d696e74656400000000604482015260640161048f565b6001600160a01b03821660009081526003602052604081208054600192906115ef908490611b92565b909155505060008181526002602052604080822080546001600160a01b0319166001600160a01b03861690811790915590518392907fddf252ad1be2c89b69c2b068fc378daa952ba7f163c4a11628f55a4df523b3ef908290a45050565b82805461165990611c01565b90600052602060002090601f01602090048101928261167b57600085556116c1565b82601f1061169457805160ff19168380011785556116c1565b828001600101855582156116c1579182015b828111156116c15782518255916020019190600101906116a6565b506116cd9291506116d1565b5090565b5b808211156116cd57600081556001016116d2565b600067ffffffffffffffff8084111561170157611701611c91565b604051601f8501601f19908116603f0116810190828211818310171561172957611729611c91565b8160405280935085815286868601111561174257600080fd5b858560208301376000602087830101525050509392505050565b80356001600160a01b038116811461177357600080fd5b919050565b600060208284031215611789578081fd5b6112148261175c565b600080604083850312156117a4578081fd5b6117ad8361175c565b91506117bb6020840161175c565b90509250929050565b6000806000606084860312156117d8578081fd5b6117e18461175c565b92506117ef6020850161175c565b9150604084013590509250925092565b60008060008060808587031215611814578081fd5b61181d8561175c565b935061182b6020860161175c565b925060408501359150606085013567ffffffffffffffff81111561184d578182fd5b8501601f8101871361185d578182fd5b61186c878235602084016116e6565b91505092959194509250565b6000806040838503121561188a578182fd5b6118938361175c565b9150602083013580151581146118a7578182fd5b809150509250929050565b600080604083850312156118c4578182fd5b6118cd8361175c565b9150602083013567ffffffffffffffff8111156118e8578182fd5b8301601f810185136118f8578182fd5b611907858235602084016116e6565b9150509250929050565b60008060408385031215611923578182fd5b61192c8361175c565b946020939093013593505050565b60006020828403121561194b578081fd5b813561121481611ca7565b600060208284031215611967578081fd5b815161121481611ca7565b600060208284031215611983578081fd5b5035919050565b600081518084526119a2816020860160208601611bd5565b601f01601f19169290920160200192915050565b600083516119c8818460208801611bd5565b8351908301906119dc818360208801611bd5565b01949350505050565b6001600160a01b0385811682528416602082015260408101839052608060608201819052600090611a189083018461198a565b9695505050505050565b60006020808301818452808551808352604092508286019150828160051b870101848801865b83811015611a9d57603f19898403018552815160608151855288820151818a870152611a768287018261198a565b928901516001600160a01b0316958901959095525094870194925090860190600101611a48565b509098975050505050505050565b602081526000611214602083018461198a565b60208082526032908201527f4552433732313a207472616e7366657220746f206e6f6e20455243373231526560408201527131b2b4bb32b91034b6b83632b6b2b73a32b960711b606082015260800190565b60208082526031908201527f4552433732313a207472616e736665722063616c6c6572206973206e6f74206f6040820152701ddb995c881b9bdc88185c1c1c9bdd9959607a1b606082015260800190565b838152606060208201526000611b7a606083018561198a565b905060018060a01b0383166040830152949350505050565b60008219821115611ba557611ba5611c65565b500190565b600082611bb957611bb9611c7b565b500490565b600082821015611bd057611bd0611c65565b500390565b60005b83811015611bf0578181015183820152602001611bd8565b83811115610aad5750506000910152565b600181811c90821680611c1557607f821691505b60208210811415610a7557634e487b7160e01b600052602260045260246000fd5b6000600019821415611c4a57611c4a611c65565b5060010190565b600082611c6057611c60611c7b565b500690565b634e487b7160e01b600052601160045260246000fd5b634e487b7160e01b600052601260045260246000fd5b634e487b7160e01b600052604160045260246000fd5b6001600160e01b031981168114611cbd57600080fd5b5056fea2646970667358221220d41703c5a30c5120014654427a7f1626c1d9935996b153e1a9d776f28024dc0364736f6c63430008040033",
  "linkReferences": {},
  "deployedLinkReferences": {}
}