{
  "_format": "hh-sol-artifact-1",
  "contractName": "Dpay",
  "sourceName": "contracts/dpay.sol",
  "abi": [
    {
      "inputs": [
        {
          "internalType": "address",
          "name": "_pricefeed",
          "type": "address"
        }
      ],
      "stateMutability": "nonpayable",
      "type": "constructor"
    },
    {
      "inputs": [],
      "name": "getLatestPrice",
      "outputs": [
        {
          "internalType": "int256",
          "name": "",
          "type": "int256"
        }
      ],
      "stateMutability": "view",
      "type": "function"
    },
    {
      "inputs": [
        {
          "internalType": "int256",
          "name": "_amount",
          "type": "int256"
        }
      ],
      "name": "getUsdPrice",
      "outputs": [
        {
          "internalType": "int256",
          "name": "",
          "type": "int256"
        }
      ],
      "stateMutability": "view",
      "type": "function"
    },
    {
      "inputs": [
        {
          "internalType": "address",
          "name": "_to",
          "type": "address"
        }
      ],
      "name": "transfer",
      "outputs": [
        {
          "internalType": "bool",
          "name": "",
          "type": "bool"
        }
      ],
      "stateMutability": "payable",
      "type": "function"
    }
  ],
  "bytecode": "0x608060405234801561001057600080fd5b5060405161044738038061044783398101604081905261002f91610054565b600080546001600160a01b0319166001600160a01b0392909216919091179055610082565b600060208284031215610065578081fd5b81516001600160a01b038116811461007b578182fd5b9392505050565b6103b6806100916000396000f3fe6080604052600436106100345760003560e01c80631a695230146100395780638e15f47314610061578063a287db1f14610084575b600080fd5b61004c610047366004610252565b6100a4565b60405190151581526020015b60405180910390f35b34801561006d57600080fd5b50610076610191565b604051908152602001610058565b34801561009057600080fd5b5061007661009f366004610280565b610219565b60006001600160a01b03821661010d5760405162461bcd60e51b815260206004820152602360248201527f45524332303a207472616e7366657220746f20746865207a65726f206164647260448201526265737360e81b60648201526084015b60405180910390fd5b34333110156101535760405162461bcd60e51b8152602060048201526012602482015271696e73756666696369656e742066756e647360701b6044820152606401610104565b6040516001600160a01b038316903480156108fc02916000818181858888f19350505050158015610188573d6000803e3d6000fd5b50600192915050565b6000805460408051633fabe5a360e21b8152905183926001600160a01b03169163feaf968c9160048083019260a0929190829003018186803b1580156101d657600080fd5b505afa1580156101ea573d6000803e3d6000fd5b505050506040513d601f19601f8201168201806040525081019061020e9190610298565b509195945050505050565b6000610223610191565b61022d90836102e7565b92915050565b805169ffffffffffffffffffff8116811461024d57600080fd5b919050565b600060208284031215610263578081fd5b81356001600160a01b0381168114610279578182fd5b9392505050565b600060208284031215610291578081fd5b5035919050565b600080600080600060a086880312156102af578081fd5b6102b886610233565b94506020860151935060408601519250606086015191506102db60808701610233565b90509295509295909350565b60006001600160ff1b038184138284138082168684048611161561030d5761030d61036a565b600160ff1b8487128281168783058912161561032b5761032b61036a565b8587129250878205871284841616156103465761034661036a565b8785058712818416161561035c5761035c61036a565b505050929093029392505050565b634e487b7160e01b600052601160045260246000fdfea26469706673582212208ba62bed2c011d3b08bd339e5561f20258ab03b5ce5b7066a80c8f69d501d65864736f6c63430008040033",
  "linkReferences": {},
  "deployedLinkReferences": {}
}